{
  "_format": "hh3-artifact-1",
  "contractName": "Credentials",
  "sourceName": "contracts/Credentials.sol",
  "abi": [
    {
      "inputs": [
        {
          "internalType": "uint256",
          "name": "id",
          "type": "uint256"
        }
      ],
      "name": "activateCredential",
      "outputs": [],
      "stateMutability": "nonpayable",
      "type": "function"
    },
    {
      "inputs": [],
      "name": "credentialCount",
      "outputs": [
        {
          "internalType": "uint256",
          "name": "",
          "type": "uint256"
        }
      ],
      "stateMutability": "view",
      "type": "function"
    },
    {
      "inputs": [
        {
          "internalType": "uint256",
          "name": "",
          "type": "uint256"
        }
      ],
      "name": "credentials",
      "outputs": [
        {
          "internalType": "address",
          "name": "issuer",
          "type": "address"
        },
        {
          "internalType": "address",
          "name": "recipient",
          "type": "address"
        },
        {
          "internalType": "string",
          "name": "metadataURI",
          "type": "string"
        },
        {
          "internalType": "uint256",
          "name": "timestamp",
          "type": "uint256"
        },
        {
          "internalType": "bool",
          "name": "revoked",
          "type": "bool"
        }
      ],
      "stateMutability": "view",
      "type": "function"
    },
    {
      "inputs": [
        {
          "internalType": "address",
          "name": "_recipient",
          "type": "address"
        },
        {
          "internalType": "string",
          "name": "_uri",
          "type": "string"
        }
      ],
      "name": "issueCredential",
      "outputs": [],
      "stateMutability": "nonpayable",
      "type": "function"
    },
    {
      "inputs": [
        {
          "internalType": "uint256",
          "name": "id",
          "type": "uint256"
        }
      ],
      "name": "revokeCredential",
      "outputs": [],
      "stateMutability": "nonpayable",
      "type": "function"
    },
    {
      "inputs": [
        {
          "internalType": "uint256",
          "name": "id",
          "type": "uint256"
        }
      ],
      "name": "verifyCredential",
      "outputs": [
        {
          "internalType": "bool",
          "name": "",
          "type": "bool"
        }
      ],
      "stateMutability": "view",
      "type": "function"
    }
  ],
  "bytecode": "0x6080604052348015600e575f5ffd5b50610d188061001c5f395ff3fe608060405234801561000f575f5ffd5b5060043610610060575f3560e01c80631b87278d146100645780633d9edf151461008057806390c7c49c1461009c578063cd0e35b9146100b8578063e0574e3f146100d6578063f2a91b1c1461010a575b5f5ffd5b61007e60048036038101906100799190610595565b61013a565b005b61009a60048036038101906100959190610595565b610207565b005b6100b660048036038101906100b19190610756565b6102d3565b005b6100c0610421565b6040516100cd91906107bf565b60405180910390f35b6100f060048036038101906100eb9190610595565b610427565b604051610101959493929190610861565b60405180910390f35b610124600480360381019061011f9190610595565b610528565b60405161013191906108b9565b60405180910390f35b5f5f8281526020019081526020015f205f015f9054906101000a900473ffffffffffffffffffffffffffffffffffffffff1673ffffffffffffffffffffffffffffffffffffffff163373ffffffffffffffffffffffffffffffffffffffff16146101d9576040517f08c379a00000000000000000000000000000000000000000000000000000000081526004016101d09061091c565b60405180910390fd5b60015f5f8381526020019081526020015f206004015f6101000a81548160ff02191690831515021790555050565b5f5f8281526020019081526020015f205f015f9054906101000a900473ffffffffffffffffffffffffffffffffffffffff1673ffffffffffffffffffffffffffffffffffffffff163373ffffffffffffffffffffffffffffffffffffffff16146102a6576040517f08c379a000000000000000000000000000000000000000000000000000000000815260040161029d90610984565b60405180910390fd5b5f5f5f8381526020019081526020015f206004015f6101000a81548160ff02191690831515021790555050565b6040518060a001604052803373ffffffffffffffffffffffffffffffffffffffff1681526020018373ffffffffffffffffffffffffffffffffffffffff1681526020018281526020014281526020015f15158152505f5f60015481526020019081526020015f205f820151815f015f6101000a81548173ffffffffffffffffffffffffffffffffffffffff021916908373ffffffffffffffffffffffffffffffffffffffff1602179055506020820151816001015f6101000a81548173ffffffffffffffffffffffffffffffffffffffff021916908373ffffffffffffffffffffffffffffffffffffffff16021790555060408201518160020190816103d99190610b9f565b50606082015181600301556080820151816004015f6101000a81548160ff02191690831515021790555090505060015f81548092919061041890610c9b565b91905055505050565b60015481565b5f602052805f5260405f205f91509050805f015f9054906101000a900473ffffffffffffffffffffffffffffffffffffffff1690806001015f9054906101000a900473ffffffffffffffffffffffffffffffffffffffff169080600201805461048f906109cf565b80601f01602080910402602001604051908101604052809291908181526020018280546104bb906109cf565b80156105065780601f106104dd57610100808354040283529160200191610506565b820191905f5260205f20905b8154815290600101906020018083116104e957829003601f168201915b505050505090806003015490806004015f9054906101000a900460ff16905085565b5f5f5f8381526020019081526020015f206004015f9054906101000a900460ff16159050919050565b5f604051905090565b5f5ffd5b5f5ffd5b5f819050919050565b61057481610562565b811461057e575f5ffd5b50565b5f8135905061058f8161056b565b92915050565b5f602082840312156105aa576105a961055a565b5b5f6105b784828501610581565b91505092915050565b5f73ffffffffffffffffffffffffffffffffffffffff82169050919050565b5f6105e9826105c0565b9050919050565b6105f9816105df565b8114610603575f5ffd5b50565b5f81359050610614816105f0565b92915050565b5f5ffd5b5f5ffd5b5f601f19601f8301169050919050565b7f4e487b71000000000000000000000000000000000000000000000000000000005f52604160045260245ffd5b61066882610622565b810181811067ffffffffffffffff8211171561068757610686610632565b5b80604052505050565b5f610699610551565b90506106a5828261065f565b919050565b5f67ffffffffffffffff8211156106c4576106c3610632565b5b6106cd82610622565b9050602081019050919050565b828183375f83830152505050565b5f6106fa6106f5846106aa565b610690565b9050828152602081018484840111156107165761071561061e565b5b6107218482856106da565b509392505050565b5f82601f83011261073d5761073c61061a565b5b813561074d8482602086016106e8565b91505092915050565b5f5f6040838503121561076c5761076b61055a565b5b5f61077985828601610606565b925050602083013567ffffffffffffffff81111561079a5761079961055e565b5b6107a685828601610729565b9150509250929050565b6107b981610562565b82525050565b5f6020820190506107d25f8301846107b0565b92915050565b6107e1816105df565b82525050565b5f81519050919050565b5f82825260208201905092915050565b8281835e5f83830152505050565b5f610819826107e7565b61082381856107f1565b9350610833818560208601610801565b61083c81610622565b840191505092915050565b5f8115159050919050565b61085b81610847565b82525050565b5f60a0820190506108745f8301886107d8565b61088160208301876107d8565b8181036040830152610893818661080f565b90506108a260608301856107b0565b6108af6080830184610852565b9695505050505050565b5f6020820190506108cc5f830184610852565b92915050565b7f4f6e6c79206973737565722063616e207265766f6b65000000000000000000005f82015250565b5f6109066016836107f1565b9150610911826108d2565b602082019050919050565b5f6020820190508181035f830152610933816108fa565b9050919050565b7f4f6e6c79206973737565722063616e20616374697661746500000000000000005f82015250565b5f61096e6018836107f1565b91506109798261093a565b602082019050919050565b5f6020820190508181035f83015261099b81610962565b9050919050565b7f4e487b71000000000000000000000000000000000000000000000000000000005f52602260045260245ffd5b5f60028204905060018216806109e657607f821691505b6020821081036109f9576109f86109a2565b5b50919050565b5f819050815f5260205f209050919050565b5f6020601f8301049050919050565b5f82821b905092915050565b5f60088302610a5b7fffffffffffffffffffffffffffffffffffffffffffffffffffffffffffffffff82610a20565b610a658683610a20565b95508019841693508086168417925050509392505050565b5f819050919050565b5f610aa0610a9b610a9684610562565b610a7d565b610562565b9050919050565b5f819050919050565b610ab983610a86565b610acd610ac582610aa7565b848454610a2c565b825550505050565b5f5f905090565b610ae4610ad5565b610aef818484610ab0565b505050565b5b81811015610b1257610b075f82610adc565b600181019050610af5565b5050565b601f821115610b5757610b28816109ff565b610b3184610a11565b81016020851015610b40578190505b610b54610b4c85610a11565b830182610af4565b50505b505050565b5f82821c905092915050565b5f610b775f1984600802610b5c565b1980831691505092915050565b5f610b8f8383610b68565b9150826002028217905092915050565b610ba8826107e7565b67ffffffffffffffff811115610bc157610bc0610632565b5b610bcb82546109cf565b610bd6828285610b16565b5f60209050601f831160018114610c07575f8415610bf5578287015190505b610bff8582610b84565b865550610c66565b601f198416610c15866109ff565b5f5b82811015610c3c57848901518255600182019150602085019450602081019050610c17565b86831015610c595784890151610c55601f891682610b68565b8355505b6001600288020188555050505b505050505050565b7f4e487b71000000000000000000000000000000000000000000000000000000005f52601160045260245ffd5b5f610ca582610562565b91507fffffffffffffffffffffffffffffffffffffffffffffffffffffffffffffffff8203610cd757610cd6610c6e565b5b60018201905091905056fea264697066735822122011025f0836b0a35f413de7390529e059d714f2cb3f95b6c3f2b0de65f624fa5e64736f6c634300081c0033",
  "linkReferences": {},
  "deployedLinkReferences": {},
  "immutableReferences": {},
  "inputSourceName": "project/contracts/Credentials.sol",
  "buildInfoId": "solc-0_8_28-9e5499ec309bfc5b8b091803f0d13fa8a2bbcf80"
}