{
  "_format": "hh3-artifact-1",
  "contractName": "Credentials",
  "sourceName": "contracts/Credentials.sol",
  "abi": [
    {
      "inputs": [],
      "name": "credentialCount",
      "outputs": [
        {
          "internalType": "uint256",
          "name": "",
          "type": "uint256"
        }
      ],
      "stateMutability": "view",
      "type": "function"
    },
    {
      "inputs": [
        {
          "internalType": "uint256",
          "name": "",
          "type": "uint256"
        }
      ],
      "name": "credentials",
      "outputs": [
        {
          "internalType": "address",
          "name": "issuer",
          "type": "address"
        },
        {
          "internalType": "address",
          "name": "recipient",
          "type": "address"
        },
        {
          "internalType": "string",
          "name": "metadataURI",
          "type": "string"
        },
        {
          "internalType": "uint256",
          "name": "timestamp",
          "type": "uint256"
        },
        {
          "internalType": "bool",
          "name": "revoked",
          "type": "bool"
        }
      ],
      "stateMutability": "view",
      "type": "function"
    },
    {
      "inputs": [
        {
          "internalType": "address",
          "name": "_recipient",
          "type": "address"
        },
        {
          "internalType": "string",
          "name": "_uri",
          "type": "string"
        }
      ],
      "name": "issueCredential",
      "outputs": [],
      "stateMutability": "nonpayable",
      "type": "function"
    },
    {
      "inputs": [
        {
          "internalType": "uint256",
          "name": "id",
          "type": "uint256"
        }
      ],
      "name": "revokeCredential",
      "outputs": [],
      "stateMutability": "nonpayable",
      "type": "function"
    },
    {
      "inputs": [
        {
          "internalType": "uint256",
          "name": "id",
          "type": "uint256"
        }
      ],
      "name": "verifyCredential",
      "outputs": [
        {
          "internalType": "bool",
          "name": "",
          "type": "bool"
        }
      ],
      "stateMutability": "view",
      "type": "function"
    }
  ],
  "bytecode": "0x6080604052348015600e575f5ffd5b50610bbd8061001c5f395ff3fe608060405234801561000f575f5ffd5b5060043610610055575f3560e01c80631b87278d1461005957806390c7c49c14610075578063cd0e35b914610091578063e0574e3f146100af578063f2a91b1c146100e3575b5f5ffd5b610073600480360381019061006e91906104a2565b610113565b005b61008f600480360381019061008a9190610663565b6101e0565b005b61009961032e565b6040516100a691906106cc565b60405180910390f35b6100c960048036038101906100c491906104a2565b610334565b6040516100da95949392919061076e565b60405180910390f35b6100fd60048036038101906100f891906104a2565b610435565b60405161010a91906107c6565b60405180910390f35b5f5f8281526020019081526020015f205f015f9054906101000a900473ffffffffffffffffffffffffffffffffffffffff1673ffffffffffffffffffffffffffffffffffffffff163373ffffffffffffffffffffffffffffffffffffffff16146101b2576040517f08c379a00000000000000000000000000000000000000000000000000000000081526004016101a990610829565b60405180910390fd5b60015f5f8381526020019081526020015f206004015f6101000a81548160ff02191690831515021790555050565b6040518060a001604052803373ffffffffffffffffffffffffffffffffffffffff1681526020018373ffffffffffffffffffffffffffffffffffffffff1681526020018281526020014281526020015f15158152505f5f60015481526020019081526020015f205f820151815f015f6101000a81548173ffffffffffffffffffffffffffffffffffffffff021916908373ffffffffffffffffffffffffffffffffffffffff1602179055506020820151816001015f6101000a81548173ffffffffffffffffffffffffffffffffffffffff021916908373ffffffffffffffffffffffffffffffffffffffff16021790555060408201518160020190816102e69190610a44565b50606082015181600301556080820151816004015f6101000a81548160ff02191690831515021790555090505060015f81548092919061032590610b40565b91905055505050565b60015481565b5f602052805f5260405f205f91509050805f015f9054906101000a900473ffffffffffffffffffffffffffffffffffffffff1690806001015f9054906101000a900473ffffffffffffffffffffffffffffffffffffffff169080600201805461039c90610874565b80601f01602080910402602001604051908101604052809291908181526020018280546103c890610874565b80156104135780601f106103ea57610100808354040283529160200191610413565b820191905f5260205f20905b8154815290600101906020018083116103f657829003601f168201915b505050505090806003015490806004015f9054906101000a900460ff16905085565b5f5f5f8381526020019081526020015f206004015f9054906101000a900460ff16159050919050565b5f604051905090565b5f5ffd5b5f5ffd5b5f819050919050565b6104818161046f565b811461048b575f5ffd5b50565b5f8135905061049c81610478565b92915050565b5f602082840312156104b7576104b6610467565b5b5f6104c48482850161048e565b91505092915050565b5f73ffffffffffffffffffffffffffffffffffffffff82169050919050565b5f6104f6826104cd565b9050919050565b610506816104ec565b8114610510575f5ffd5b50565b5f81359050610521816104fd565b92915050565b5f5ffd5b5f5ffd5b5f601f19601f8301169050919050565b7f4e487b71000000000000000000000000000000000000000000000000000000005f52604160045260245ffd5b6105758261052f565b810181811067ffffffffffffffff821117156105945761059361053f565b5b80604052505050565b5f6105a661045e565b90506105b2828261056c565b919050565b5f67ffffffffffffffff8211156105d1576105d061053f565b5b6105da8261052f565b9050602081019050919050565b828183375f83830152505050565b5f610607610602846105b7565b61059d565b9050828152602081018484840111156106235761062261052b565b5b61062e8482856105e7565b509392505050565b5f82601f83011261064a57610649610527565b5b813561065a8482602086016105f5565b91505092915050565b5f5f6040838503121561067957610678610467565b5b5f61068685828601610513565b925050602083013567ffffffffffffffff8111156106a7576106a661046b565b5b6106b385828601610636565b9150509250929050565b6106c68161046f565b82525050565b5f6020820190506106df5f8301846106bd565b92915050565b6106ee816104ec565b82525050565b5f81519050919050565b5f82825260208201905092915050565b8281835e5f83830152505050565b5f610726826106f4565b61073081856106fe565b935061074081856020860161070e565b6107498161052f565b840191505092915050565b5f8115159050919050565b61076881610754565b82525050565b5f60a0820190506107815f8301886106e5565b61078e60208301876106e5565b81810360408301526107a0818661071c565b90506107af60608301856106bd565b6107bc608083018461075f565b9695505050505050565b5f6020820190506107d95f83018461075f565b92915050565b7f4f6e6c79206973737565722063616e207265766f6b65000000000000000000005f82015250565b5f6108136016836106fe565b915061081e826107df565b602082019050919050565b5f6020820190508181035f83015261084081610807565b9050919050565b7f4e487b71000000000000000000000000000000000000000000000000000000005f52602260045260245ffd5b5f600282049050600182168061088b57607f821691505b60208210810361089e5761089d610847565b5b50919050565b5f819050815f5260205f209050919050565b5f6020601f8301049050919050565b5f82821b905092915050565b5f600883026109007fffffffffffffffffffffffffffffffffffffffffffffffffffffffffffffffff826108c5565b61090a86836108c5565b95508019841693508086168417925050509392505050565b5f819050919050565b5f61094561094061093b8461046f565b610922565b61046f565b9050919050565b5f819050919050565b61095e8361092b565b61097261096a8261094c565b8484546108d1565b825550505050565b5f5f905090565b61098961097a565b610994818484610955565b505050565b5b818110156109b7576109ac5f82610981565b60018101905061099a565b5050565b601f8211156109fc576109cd816108a4565b6109d6846108b6565b810160208510156109e5578190505b6109f96109f1856108b6565b830182610999565b50505b505050565b5f82821c905092915050565b5f610a1c5f1984600802610a01565b1980831691505092915050565b5f610a348383610a0d565b9150826002028217905092915050565b610a4d826106f4565b67ffffffffffffffff811115610a6657610a6561053f565b5b610a708254610874565b610a7b8282856109bb565b5f60209050601f831160018114610aac575f8415610a9a578287015190505b610aa48582610a29565b865550610b0b565b601f198416610aba866108a4565b5f5b82811015610ae157848901518255600182019150602085019450602081019050610abc565b86831015610afe5784890151610afa601f891682610a0d565b8355505b6001600288020188555050505b505050505050565b7f4e487b71000000000000000000000000000000000000000000000000000000005f52601160045260245ffd5b5f610b4a8261046f565b91507fffffffffffffffffffffffffffffffffffffffffffffffffffffffffffffffff8203610b7c57610b7b610b13565b5b60018201905091905056fea26469706673582212203063d4a43e694ea4eae4a183cae9a757555b8ea1aaccdd4565f10d53956140cc64736f6c634300081c0033",
  "linkReferences": {},
  "deployedLinkReferences": {},
  "immutableReferences": {},
  "inputSourceName": "project/contracts/Credentials.sol",
  "buildInfoId": "solc-0_8_28-f73a563d4f5ffd1a326d4ff61701259317e2d94c"
}